:0200000001FFFE
:0200010001FFFD
:0200020001FFFC
:0200030001FFFB
:0200040001FFFA
:0200050001FFF9
:0200060001FFF8
:0200070001FFF7
:0200080001FFF6
:0200090001FFF5
:02000A0001FFF4
:02000B0001FFF3
:02000C0001FFF2
:02000D0001FFF1
:02000E0001FFF0
:02000F0001FFEF
:0200100001FFEE
:0200110001FFED
:0200120001FFEC
:0200130001FFEB
:0200140001FFEA
:0200150001FFE9
:0200160001FFE8
:0200170001FFE7
:0200180001FFE6
:0200190001FFE5
:02001A0001FFE4
:02001B0001FFE3
:02001C0001FFE2
:02001D0001FFE1
:02001E0001FFE0
:02001F0001FFDF
:0200200001FFDE
:0200210001FFDD
:0200220001FFDC
:0200230001FFDB
:0200240001FFDA
:0200250001FFD9
:0200260001FFD8
:0200270001FFD7
:0200280001FFD6
:0200290001FFD5
:02002A0001FFD4
:02002B0001FFD3
:02002C0001FFD2
:02002D0001FFD1
:02002E0001FFD0
:02002F0001FFCF
:0200300001FFCE
:0200310001FFCD
:0200320001FFCC
:0200330001FFCB
:0200340001FFCA
:0200350001FFC9
:0200360001FFC8
:0200370001FFC7
:0200380001FFC6
:0200390001FFC5
:02003A0001FFC4
:02003B0001FFC3
:02003C0001FFC2
:02003D0001FFC1
:02003E0001FFC0
:02003F0001FFBF
:0200400001FFBE
:0200410001FFBD
:0200420001FFBC
:0200430001FFBB
:0200440001FFBA
:0200450001FFB9
:0200460001FFB8
:0200470001FFB7
:0200480001FFB6
:0200490001FFB5
:02004A0001FFB4
:02004B0001FFB3
:02004C0001FFB2
:02004D0001FFB1
:02004E0001FFB0
:02004F0001FFAF
:0200500001FFAE
:0200510001FFAD
:0200520001FFAC
:0200530001FFAB
:0200540001FFAA
:0200550001FFA9
:0200560001FFA8
:0200570001FFA7
:0200580001FFA6
:0200590001FFA5
:02005A0001FFA4
:02005B0001FFA3
:02005C0001FFA2
:02005D0001FFA1
:02005E0001FFA0
:02005F0001FF9F
:0200600001FF9E
:0200610001FF9D
:0200620001FF9C
:0200630001FF9B
:0200640001FF9A
:0200650001FF99
:0200660001FF98
:0200670001FF97
:0200680001FF96
:0200690001FF95
:02006A0001FF94
:02006B0001FF93
:02006C0001FF92
:02006D0001FF91
:02006E0001FF90
:02006F0001FF8F
:0200700001FF8E
:0200710001FF8D
:0200720001FF8C
:0200730001FF8B
:0200740001FF8A
:0200750001FF89
:0200760001FF88
:0200770001FF87
:0200780001FF86
:0200790001FF85
:02007A0001FF84
:02007B0001FF83
:02007C0001FF82
:02007D0001FF81
:02007E0001FF80
:02007F0001FF7F
:0200800001FF7E
:0200810001FF7D
:0200820001FF7C
:0200830001FF7B
:0200840001FF7A
:0200850001FF79
:0200860001FF78
:0200870001FF77
:0200880001FF76
:0200890001FF75
:02008A0001FF74
:02008B0001FF73
:02008C0001FF72
:02008D0001FF71
:02008E0001FF70
:02008F0001FF6F
:0200900001FF6E
:0200910001FF6D
:0200920001FF6C
:0200930001FF6B
:0200940001FF6A
:0200950001FF69
:0200960001FF68
:0200970001FF67
:0200980001FF66
:0200990001FF65
:02009A0001FF64
:02009B0001FF63
:02009C0001FF62
:02009D0001FF61
:02009E0001FF60
:02009F0001FF5F
:0200A00001FF5E
:0200A10001FF5D
:0200A20001FF5C
:0200A30001FF5B
:0200A40001FF5A
:0200A50001FF59
:0200A60001FF58
:0200A70001FF57
:0200A80001FF56
:0200A90001FF55
:0200AA0001FF54
:0200AB0001FF53
:0200AC0001FF52
:0200AD0001FF51
:0200AE0001FF50
:0200AF0001FF4F
:0200B00001FF4E
:0200B10001FF4D
:0200B20001FF4C
:0200B30001FF4B
:0200B40001FF4A
:0200B50001FF49
:0200B60001FF48
:0200B70001FF47
:0200B80001FF46
:0200B90001FF45
:0200BA0001FF44
:0200BB0001FF43
:0200BC0001FF42
:0200BD0001FF41
:0200BE0001FF40
:0200BF0001FF3F
:0200C00001FF3E
:0200C10001FF3D
:0200C20001FF3C
:0200C30001FF3B
:0200C40001FF3A
:0200C50001FF39
:0200C60001FF38
:0200C70001FF37
:0200C80001FF36
:0200C90001FF35
:0200CA0001FF34
:0200CB0001FF33
:0200CC0001FF32
:0200CD0001FF31
:0200CE0001FF30
:0200CF0001FF2F
:0200D00001FF2E
:0200D10001FF2D
:0200D20001FF2C
:0200D30001FF2B
:0200D40001FF2A
:0200D50001FF29
:0200D60001FF28
:0200D70001FF27
:0200D80001FF26
:0200D90001FF25
:0200DA0001FF24
:0200DB0001FF23
:0200DC0001FF22
:0200DD0001FF21
:0200DE0001FF20
:0200DF0001FF1F
:0200E00001FF1E
:0200E10001FF1D
:0200E20001FF1C
:0200E30001FF1B
:0200E40001FF1A
:0200E50001FF19
:0200E60001FF18
:0200E70001FF17
:0200E80001FF16
:0200E90001FF15
:0200EA0001FF14
:0200EB0001FF13
:0200EC0001FF12
:0200ED0001FF11
:0200EE0001FF10
:0200EF0001FF0F
:0200F00001FF0E
:0200F10001C04C
:0200F20001C04B
:0200F30001C04A
:0200F40001C049
:0200F50001C048
:0200F60001C047
:0200F70001C046
:0200F80001C045
:0200F90001C044
:0200FA0001C043
:0200FB0001C042
:0200FC0001C041
:0200FD0001C040
:0200FE0001C03F
:0200FF0001C03E
:0201000001C03C
:0201010001C03B
:0201020001C03A
:0201030001C039
:0201040001C038
:0201050001C037
:0201060001C036
:0201070001C035
:0201080001C034
:0201090001C033
:02010A0001C032
:02010B0001C031
:02010C0001C030
:02010D0001C02F
:02010E0001C02E
:02010F0001C02D
:0201100001C02C
:0201110001C02B
:0201120001C02A
:0201130001C029
:0201140001C028
:0201150001C027
:0201160001C026
:0201170001C025
:0201180001C024
:0201190001C023
:02011A0001C022
:02011B0001C021
:02011C0001C020
:02011D0001C01F
:02011E0001C01E
:02011F0001C01D
:0201200001C01C
:0201210001C01B
:0201220001C01A
:0201230001C019
:0201240001C018
:0201250001C017
:0201260001C016
:0201270001C015
:0201280001C014
:0201290001C013
:02012A0001C012
:02012B0001C011
:02012C0001C010
:02012D0001C00F
:02012E0001C00E
:02012F0001C00D
:0201300001C00C
:0201310001C00B
:0201320001C00A
:0201330001C009
:0201340001C008
:0201350001C007
:0201360001C006
:0201370001C005
:0201380001C004
:0201390001C003
:02013A0001C002
:02013B0001C001
:02013C0001C000
:02013D0001C0FF
:02013E0001C0FE
:02013F0001C0FD
:0201400001C0FC
:0201410001C0FB
:0201420001C0FA
:0201430001C0F9
:0201440001C0F8
:0201450001C0F7
:0201460001C0F6
:0201470001C0F5
:0201480001C0F4
:0201490001C0F3
:02014A0001C0F2
:02014B0001C0F1
:02014C0001C0F0
:02014D0001C0EF
:02014E0001C0EE
:02014F0001C0ED
:0201500001C0EC
:0201510001C0EB
:0201520001C0EA
:0201530001C0E9
:0201540001C0E8
:0201550001C0E7
:0201560001C0E6
:0201570001C0E5
:0201580001C0E4
:0201590001C0E3
:02015A0001C0E2
:02015B0001C0E1
:02015C0001C0E0
:02015D0001C0DF
:02015E0001C0DE
:02015F0001C0DD
:0201600001C0DC
:0201610001C0DB
:0201620001C0DA
:0201630001C0D9
:0201640001C0D8
:0201650001C0D7
:0201660001C0D6
:0201670001C0D5
:0201680001C0D4
:0201690001C0D3
:02016A0001C0D2
:02016B0001C0D1
:02016C0001C0D0
:02016D0001C0CF
:02016E0001C0CE
:02016F0001C0CD
:0201700001C0CC
:0201710001C0CB
:0201720001C0CA
:0201730001C0C9
:0201740001C0C8
:0201750001C0C7
:0201760001C0C6
:0201770001C0C5
:0201780001C0C4
:0201790001C0C3
:02017A0001C0C2
:02017B0001C0C1
:02017C0001C0C0
:02017D0001C0BF
:02017E0001C0BE
:02017F0001C0BD
:0201800001C0BC
:0201810001C0BB
:0201820001C0BA
:0201830001C0B9
:0201840001C0B8
:0201850001C0B7
:0201860001C0B6
:0201870001C0B5
:0201880001C0B4
:0201890001C0B3
:02018A0001C0B2
:02018B0001C0B1
:02018C0001C0B0
:02018D0001C0AF
:02018E0001C0AE
:02018F0001C0AD
:0201900001C0AC
:0201910001C0AB
:0201920001C0AA
:0201930001C0A9
:0201940001C0A8
:0201950001C0A7
:0201960001C0A6
:0201970001C0A5
:0201980001C0A4
:0201990001C0A3
:02019A0001C0A2
:02019B0001C0A1
:02019C0001C0A0
:02019D0001C09F
:02019E0001C09E
:02019F0001C09D
:0201A00001C09C
:0201A10001C09B
:0201A20001C09A
:0201A30001C099
:0201A40001C098
:0201A50001C097
:0201A60001C096
:0201A70001C095
:0201A80001C094
:0201A90001C093
:0201AA0001C092
:0201AB0001C091
:0201AC0001C090
:0201AD0001C08F
:0201AE0001C08E
:0201AF0001C08D
:0201B00001C08C
:0201B10001C08B
:0201B20001C08A
:0201B30001C089
:0201B40001C088
:0201B50001C087
:0201B60001C086
:0201B70001C085
:0201B80001C084
:0201B90001C083
:0201BA0001C082
:0201BB0001C081
:0201BC0001C080
:0201BD0001C07F
:0201BE0001C07E
:0201BF0001C07D
:0201C00001C07C
:0201C10001C07B
:0201C20001C07A
:0201C30001C079
:0201C40001C078
:0201C50001C077
:0201C60001C076
:0201C70001C075
:0201C80001C074
:0201C90001C073
:0201CA0001C072
:0201CB0001C071
:0201CC0001C070
:0201CD0001C06F
:0201CE0001C06E
:0201CF0001C06D
:0201D00001C06C
:0201D10001C06B
:0201D20001C06A
:0201D30001C069
:0201D40001C068
:0201D50001C067
:0201D60001C066
:0201D70001C065
:0201D80001C064
:0201D90001C063
:0201DA0001C062
:0201DB0001C061
:0201DC0001C060
:0201DD0001C05F
:0201DE0001C05E
:0201DF0001FF1E
:0201E00001FF1D
:0201E10001C05B
:0201E200000714
:0201E300000713
:0201E400000712
:0201E500000711
:0201E600000710
:0201E70000070F
:0201E80000070E
:0201E90000070D
:0201EA0000070C
:0201EB0000070B
:0201EC0000070A
:0201ED00000709
:0201EE00000708
:0201EF00000707
:0201F000000706
:0201F100000705
:0201F200000704
:0201F300000703
:0201F400000702
:0201F500000701
:0201F600000700
:0201F7000007FF
:0201F8000007FE
:0201F9000007FD
:0201FA000007FC
:0201FB000007FB
:0201FC000007FA
:0201FD000007F9
:0201FE000007F8
:0201FF000007F7
:020200000007F5
:020201000007F4
:020202000007F3
:020203000007F2
:020204000007F1
:020205000007F0
:020206000007EF
:020207000007EE
:020208000007ED
:020209000007EC
:02020A000007EB
:02020B000007EA
:02020C000007E9
:02020D000007E8
:02020E000007E7
:02020F000007E6
:020210000007E5
:020211000007E4
:020212000007E3
:020213000007E2
:020214000007E1
:020215000007E0
:020216000007DF
:020217000007DE
:020218000007DD
:020219000007DC
:02021A000007DB
:02021B000007DA
:02021C000007D9
:02021D000007D8
:02021E000007D7
:02021F000007D6
:020220000007D5
:020221000007D4
:020222000007D3
:020223000007D2
:020224000007D1
:020225000007D0
:020226000007CF
:020227000007CE
:020228000007CD
:020229000007CC
:02022A000007CB
:02022B000007CA
:02022C000007C9
:02022D000007C8
:02022E000007C7
:02022F000007C6
:020230000007C5
:020231000007C4
:020232000007C3
:020233000007C2
:020234000007C1
:020235000007C0
:020236000007BF
:020237000007BE
:020238000007BD
:020239000007BC
:02023A000007BB
:02023B000007BA
:02023C000007B9
:02023D000007B8
:02023E000007B7
:02023F000007B6
:020240000007B5
:020241000007B4
:020242000007B3
:020243000007B2
:020244000007B1
:020245000007B0
:020246000007AF
:020247000007AE
:020248000007AD
:020249000007AC
:02024A000007AB
:02024B000007AA
:02024C000007A9
:02024D000007A8
:02024E000007A7
:02024F000007A6
:020250000007A5
:020251000007A4
:020252000007A3
:020253000007A2
:020254000007A1
:020255000007A0
:0202560000079F
:0202570000079E
:0202580000079D
:0202590000079C
:02025A0000079B
:02025B0000079A
:02025C00000799
:02025D00000798
:02025E00000797
:02025F00000796
:02026000000795
:02026100000794
:02026200000793
:02026300000792
:02026400000791
:02026500000790
:0202660000078F
:0202670000078E
:0202680000078D
:0202690000078C
:02026A0000078B
:02026B0000078A
:02026C00000789
:02026D00000788
:02026E00000787
:02026F00000786
:02027000000785
:02027100000784
:02027200000783
:02027300000782
:02027400000781
:02027500000780
:0202760000077F
:0202770000077E
:0202780000077D
:0202790000077C
:02027A0000077B
:02027B0000077A
:02027C00000779
:02027D00000778
:02027E00000777
:02027F00000776
:02028000000775
:02028100000774
:02028200000773
:02028300000772
:02028400000771
:02028500000770
:0202860000076F
:0202870000076E
:0202880000076D
:0202890000076C
:02028A0000076B
:02028B0000076A
:02028C00000769
:02028D00000768
:02028E00000767
:02028F00000766
:02029000000765
:02029100000764
:02029200000763
:02029300000762
:02029400000761
:02029500000760
:0202960000075F
:0202970000075E
:0202980000075D
:0202990000075C
:02029A0000075B
:02029B0000075A
:02029C00000759
:02029D00000758
:02029E00000757
:02029F00000756
:0202A000000755
:0202A100000754
:0202A200000753
:0202A300000752
:0202A400000751
:0202A500000750
:0202A60000074F
:0202A70000074E
:0202A80000074D
:0202A90000074C
:0202AA0000074B
:0202AB0000074A
:0202AC00000749
:0202AD00000748
:0202AE00000747
:0202AF00000746
:0202B000000745
:0202B100000744
:0202B200000743
:0202B300000742
:0202B400000741
:0202B500000740
:0202B60000073F
:0202B70000073E
:0202B80000073D
:0202B90000073C
:0202BA0000073B
:0202BB0000073A
:0202BC00000739
:0202BD00000738
:0202BE00000737
:0202BF00000736
:0202C000000735
:0202C100000734
:0202C200000733
:0202C300000732
:0202C400000731
:0202C500000730
:0202C60000072F
:0202C70000072E
:0202C80000072D
:0202C90000072C
:0202CA0000072B
:0202CB0000072A
:0202CC00000729
:0202CD00000728
:0202CE0001C06D
:0202CF0001FF2D
:0202D00001FF2C
:0202D10001C06A
:0202D200000723
:0202D300000029
:0202D400000028
:0202D500000027
:0202D600000026
:0202D700000025
:0202D800000024
:0202D900000023
:0202DA00000022
:0202DB00000021
:0202DC00000020
:0202DD0000001F
:0202DE0000001E
:0202DF0000001D
:0202E00000001C
:0202E10000001B
:0202E20000001A
:0202E300000019
:0202E400000018
:0202E500000017
:0202E600000016
:0202E700000015
:0202E800000014
:0202E900000013
:0202EA00000012
:0202EB00000011
:0202EC00000010
:0202ED0000000F
:0202EE0000000E
:0202EF0000000D
:0202F00000000C
:0202F10000000B
:0202F20000000A
:0202F300000009
:0202F400000008
:0202F500000007
:0202F600000006
:0202F700000005
:0202F800000004
:0202F900000003
:0202FA00000002
:0202FB00000001
:0202FC00000000
:0202FD000000FF
:0202FE000000FE
:0202FF000000FD
:020300000000FB
:020301000000FA
:020302000000F9
:020303000000F8
:020304000000F7
:020305000000F6
:020306000000F5
:020307000000F4
:020308000000F3
:020309000000F2
:02030A000000F1
:02030B000000F0
:02030C000000EF
:02030D000000EE
:02030E000000ED
:02030F000000EC
:020310000000EB
:020311000000EA
:020312000000E9
:020313000000E8
:020314000000E7
:020315000000E6
:020316000000E5
:020317000000E4
:020318000000E3
:020319000000E2
:02031A000000E1
:02031B000000E0
:02031C000000DF
:02031D000000DE
:02031E000000DD
:02031F000000DC
:020320000000DB
:020321000000DA
:020322000000D9
:020323000000D8
:020324000000D7
:020325000000D6
:020326000000D5
:020327000000D4
:020328000000D3
:020329000000D2
:02032A000000D1
:02032B000000D0
:02032C000000CF
:02032D000000CE
:02032E000000CD
:02032F000000CC
:020330000000CB
:020331000000CA
:020332000000C9
:020333000000C8
:020334000000C7
:020335000000C6
:020336000000C5
:020337000000C4
:020338000000C3
:020339000000C2
:02033A000000C1
:02033B000000C0
:02033C000000BF
:02033D000000BE
:02033E000000BD
:02033F000000BC
:020340000000BB
:020341000000BA
:020342000000B9
:020343000000B8
:020344000000B7
:020345000000B6
:020346000000B5
:020347000000B4
:020348000000B3
:020349000000B2
:02034A000000B1
:02034B000000B0
:02034C000000AF
:02034D000000AE
:02034E000000AD
:02034F000000AC
:020350000000AB
:020351000000AA
:020352000000A9
:020353000000A8
:020354000000A7
:020355000000A6
:020356000000A5
:020357000000A4
:020358000000A3
:020359000000A2
:02035A000000A1
:02035B000000A0
:02035C0000009F
:02035D0000009E
:02035E0000009D
:02035F0000009C
:0203600000009B
:0203610000009A
:02036200000099
:02036300000098
:02036400000097
:02036500000096
:02036600000095
:02036700000094
:02036800000093
:02036900000092
:02036A00000091
:02036B00000090
:02036C0000008F
:02036D0000008E
:02036E0000008D
:02036F0000008C
:0203700000008B
:0203710000008A
:02037200000089
:02037300000088
:02037400000087
:02037500000086
:02037600000085
:02037700000084
:02037800000083
:02037900000082
:02037A00000081
:02037B00000080
:02037C0000007F
:02037D0000007E
:02037E0000007D
:02037F0000007C
:0203800000007B
:0203810000007A
:02038200000079
:02038300000078
:02038400000077
:02038500000076
:02038600000075
:02038700000074
:02038800000073
:02038900000072
:02038A00000071
:02038B00000070
:02038C0000006F
:02038D0000006E
:02038E0000006D
:02038F0000006C
:0203900000006B
:0203910000006A
:02039200000069
:02039300000068
:02039400000067
:02039500000066
:02039600000065
:02039700000064
:02039800000063
:02039900000062
:02039A00000061
:02039B00000060
:02039C0000005F
:02039D0000005E
:02039E0000005D
:02039F0000005C
:0203A00000005B
:0203A10000005A
:0203A200000059
:0203A300000058
:0203A400000057
:0203A500000056
:0203A600000055
:0203A700000054
:0203A800000053
:0203A900000052
:0203AA00000051
:0203AB00000050
:0203AC0000004F
:0203AD0000004E
:0203AE0000004D
:0203AF0000004C
:0203B00000004B
:0203B10000004A
:0203B200000049
:0203B300000048
:0203B400000047
:0203B500000046
:0203B600000045
:0203B700000044
:0203B800000043
:0203B900000042
:0203BA00000041
:0203BB00000040
:0203BC0000003F
:0203BD00000737
:0203BE0001C07C
:0203BF0001FF3C
:0203C00001FF3B
:0203C10001C079
:0203C200000732
:0203C300000038
:0203C4000038FF
:0203C5000038FE
:0203C6000038FD
:0203C7000038FC
:0203C8000038FB
:0203C9000038FA
:0203CA000038F9
:0203CB000038F8
:0203CC000038F7
:0203CD000038F6
:0203CE000038F5
:0203CF000038F4
:0203D0000038F3
:0203D1000038F2
:0203D2000038F1
:0203D3000038F0
:0203D4000038EF
:0203D5000038EE
:0203D6000038ED
:0203D7000038EC
:0203D8000038EB
:0203D9000038EA
:0203DA000038E9
:0203DB000038E8
:0203DC000038E7
:0203DD000038E6
:0203DE000038E5
:0203DF000038E4
:0203E0000038E3
:0203E1000038E2
:0203E2000038E1
:0203E3000038E0
:0203E4000038DF
:0203E5000038DE
:0203E6000038DD
:0203E7000038DC
:0203E8000038DB
:0203E9000038DA
:0203EA000038D9
:0203EB000038D8
:0203EC000038D7
:0203ED000038D6
:0203EE000038D5
:0203EF000038D4
:0203F0000038D3
:0203F1000038D2
:0203F2000038D1
:0203F3000038D0
:0203F4000038CF
:0203F5000038CE
:0203F6000038CD
:0203F7000038CC
:0203F8000038CB
:0203F9000038CA
:0203FA000038C9
:0203FB000038C8
:0203FC000038C7
:0203FD000038C6
:0203FE000038C5
:0203FF000038C4
:020400000038C2
:020401000038C1
:020402000038C0
:020403000038BF
:020404000038BE
:020405000038BD
:020406000038BC
:020407000038BB
:020408000038BA
:020409000038B9
:02040A000038B8
:02040B000038B7
:02040C000038B6
:02040D000038B5
:02040E000038B4
:02040F000038B3
:020410000038B2
:020411000038B1
:020412000038B0
:020413000038AF
:020414000038AE
:020415000038AD
:020416000038AC
:020417000038AB
:020418000038AA
:020419000038A9
:02041A000038A8
:02041B000038A7
:02041C000038A6
:02041D000038A5
:02041E000038A4
:02041F000038A3
:020420000038A2
:020421000038A1
:020422000038A0
:0204230000389F
:0204240000389E
:0204250000389D
:0204260000389C
:0204270000389B
:0204280000389A
:02042900003899
:02042A00003898
:02042B00003897
:02042C00003896
:02042D00003895
:02042E00003894
:02042F00003893
:02043000003892
:02043100003891
:02043200003890
:0204330000388F
:0204340000388E
:0204350000388D
:0204360000388C
:0204370000388B
:0204380000388A
:02043900003889
:02043A00003888
:02043B00003887
:02043C00003886
:02043D00003885
:02043E00003884
:02043F00003883
:02044000003882
:02044100003881
:02044200003880
:0204430000387F
:0204440000387E
:0204450000387D
:0204460000387C
:0204470000387B
:0204480000387A
:02044900003879
:02044A00003878
:02044B00003877
:02044C00003876
:02044D00003875
:02044E00003874
:02044F00003873
:02045000003872
:02045100003871
:02045200003870
:0204530000386F
:0204540000386E
:0204550000386D
:0204560000386C
:0204570000386B
:0204580000386A
:02045900003869
:02045A00003868
:02045B00003867
:02045C00003866
:02045D00003865
:02045E00003864
:02045F00003863
:02046000003862
:02046100003861
:02046200003860
:0204630000385F
:0204640000385E
:0204650000385D
:0204660000385C
:0204670000385B
:0204680000385A
:02046900003859
:02046A00003858
:02046B00003857
:02046C00003856
:02046D00003855
:02046E00003854
:02046F00003853
:02047000003852
:02047100003851
:02047200003850
:0204730000384F
:0204740000384E
:0204750000384D
:0204760000384C
:0204770000384B
:0204780000384A
:02047900003849
:02047A00003848
:02047B00003847
:02047C00003846
:02047D00003845
:02047E00003844
:02047F00003843
:02048000003842
:02048100003841
:02048200003840
:0204830000383F
:0204840000383E
:0204850000383D
:0204860000383C
:0204870000383B
:0204880000383A
:02048900003839
:02048A00003838
:02048B00003837
:02048C00003836
:02048D00003835
:02048E00003834
:02048F00003833
:02049000003832
:02049100003831
:02049200003830
:0204930000382F
:0204940000382E
:0204950000382D
:0204960000382C
:0204970000382B
:0204980000382A
:02049900003829
:02049A00003828
:02049B00003827
:02049C00003826
:02049D00003825
:02049E00003824
:02049F00003823
:0204A000003822
:0204A100003821
:0204A200003820
:0204A30000381F
:0204A40000381E
:0204A50000381D
:0204A60000381C
:0204A70000381B
:0204A80000381A
:0204A900003819
:0204AA00003818
:0204AB00003817
:0204AC0000004E
:0204AD00000746
:0204AE0001C08B
:0204AF0001FF4B
:0204B00001FF4A
:0204B10001C088
:0204B200000741
:0204B300000047
:0204B40000380E
:0204B50001C084
:0204B60001C083
:0204B70001C082
:0204B80001C081
:0204B90001C080
:0204BA0001C07F
:0204BB0001C07E
:0204BC0001C07D
:0204BD0001C07C
:0204BE0001C07B
:0204BF0001C07A
:0204C00001C079
:0204C10001C078
:0204C20001C077
:0204C30001C076
:0204C40001C075
:0204C50001C074
:0204C60001C073
:0204C70001C072
:0204C80001C071
:0204C90001C070
:0204CA0001C06F
:0204CB0001C06E
:0204CC0001C06D
:0204CD0001C06C
:0204CE0001C06B
:0204CF0001C06A
:0204D00001C069
:0204D10001C068
:0204D20001C067
:0204D30001C066
:0204D40001C065
:0204D50001C064
:0204D60001C063
:0204D70001C062
:0204D80001C061
:0204D90001C060
:0204DA0001C05F
:0204DB0001C05E
:0204DC0001C05D
:0204DD0001C05C
:0204DE0001C05B
:0204DF0001C05A
:0204E00001C059
:0204E10001C058
:0204E20001C057
:0204E30001C056
:0204E40001C055
:0204E50001C054
:0204E60001C053
:0204E70001C052
:0204E80001C051
:0204E90001C050
:0204EA0001C04F
:0204EB0001C04E
:0204EC0001C04D
:0204ED0001C04C
:0204EE000038D4
:0204EF000038D3
:0204F0000038D2
:0204F1000038D1
:0204F2000038D0
:0204F3000038CF
:0204F4000038CE
:0204F5000038CD
:0204F6000038CC
:0204F7000038CB
:0204F8000038CA
:0204F9000038C9
:0204FA000038C8
:0204FB000038C7
:0204FC000038C6
:0204FD000038C5
:0204FE000038C4
:0204FF000038C3
:020500000038C1
:020501000038C0
:020502000038BF
:020503000038BE
:020504000038BD
:020505000038BC
:020506000038BB
:020507000038BA
:020508000038B9
:020509000038B8
:02050A000038B7
:02050B000038B6
:02050C000038B5
:02050D000038B4
:02050E000038B3
:02050F000038B2
:020510000038B1
:020511000038B0
:020512000038AF
:020513000038AE
:020514000038AD
:020515000038AC
:020516000038AB
:020517000038AA
:020518000038A9
:020519000038A8
:02051A000038A7
:02051B000038A6
:02051C000038A5
:02051D000038A4
:02051E000038A3
:02051F000038A2
:020520000038A1
:020521000038A0
:0205220000389F
:0205230000389E
:0205240000389D
:0205250000389C
:0205260000389B
:0205270000389A
:020528000007CA
:020529000007C9
:02052A000007C8
:02052B000007C7
:02052C000007C6
:02052D000007C5
:02052E000007C4
:02052F000007C3
:020530000007C2
:020531000007C1
:020532000007C0
:020533000007BF
:020534000007BE
:020535000007BD
:020536000007BC
:020537000007BB
:020538000007BA
:020539000007B9
:02053A000007B8
:02053B000007B7
:02053C000007B6
:02053D000007B5
:02053E000007B4
:02053F000007B3
:020540000007B2
:020541000007B1
:020542000007B0
:020543000007AF
:020544000007AE
:020545000007AD
:020546000007AC
:020547000007AB
:020548000007AA
:020549000007A9
:02054A000007A8
:02054B000007A7
:02054C000007A6
:02054D000007A5
:02054E000007A4
:02054F000007A3
:020550000007A2
:020551000007A1
:020552000007A0
:0205530000079F
:0205540000079E
:0205550000079D
:0205560000079C
:0205570000079B
:0205580000079A
:02055900000799
:02055A00000798
:02055B00000797
:02055C00000796
:02055D00000795
:02055E00000794
:02055F00000793
:02056000000792
:02056100000791
:02056200000097
:02056300000096
:02056400000095
:02056500000094
:02056600000093
:02056700000092
:02056800000091
:02056900000090
:02056A0000008F
:02056B0000008E
:02056C0000008D
:02056D0000008C
:02056E0000008B
:02056F0000008A
:02057000000089
:02057100000088
:02057200000087
:02057300000086
:02057400000085
:02057500000084
:02057600000083
:02057700000082
:02057800000081
:02057900000080
:02057A0000007F
:02057B0000007E
:02057C0000007D
:02057D0000007C
:02057E0000007B
:02057F0000007A
:02058000000079
:02058100000078
:02058200000077
:02058300000076
:02058400000075
:02058500000074
:02058600000073
:02058700000072
:02058800000071
:02058900000070
:02058A0000006F
:02058B0000006E
:02058C0000006D
:02058D0000006C
:02058E0000006B
:02058F0000006A
:02059000000069
:02059100000068
:02059200000067
:02059300000066
:02059400000065
:02059500000064
:02059600000063
:02059700000062
:02059800000061
:02059900000060
:02059A0000005F
:02059B00003826
:02059C0000005D
:02059D00000755
:02059E0001C09A
:02059F0001FF5A
:0205A00001FF59
:0205A10001C097
:0205A200000750
:0205A300000056
:0205A40000381D
:0205A50001C093
:0205A60001C092
:0205A70001C091
:0205A80001C090
:0205A90001C08F
:0205AA0001C08E
:0205AB0001C08D
:0205AC0001C08C
:0205AD0001C08B
:0205AE0001C08A
:0205AF0001C089
:0205B00001C088
:0205B10001C087
:0205B20001C086
:0205B30001C085
:0205B40001C084
:0205B50001C083
:0205B60001C082
:0205B70001C081
:0205B80001C080
:0205B90001C07F
:0205BA0001C07E
:0205BB0001C07D
:0205BC0001C07C
:0205BD0001C07B
:0205BE0001C07A
:0205BF0001C079
:0205C00001C078
:0205C10001C077
:0205C20001C076
:0205C30001C075
:0205C40001C074
:0205C50001C073
:0205C60001C072
:0205C70001C071
:0205C80001C070
:0205C90001C06F
:0205CA0001C06E
:0205CB0001C06D
:0205CC0001C06C
:0205CD0001C06B
:0205CE0001C06A
:0205CF0001C069
:0205D00001C068
:0205D10001C067
:0205D20001C066
:0205D30001C065
:0205D40001C064
:0205D50001C063
:0205D60001C062
:0205D70001C061
:0205D80001C060
:0205D90001C05F
:0205DA0001C05E
:0205DB0001C05D
:0205DC0001C05C
:0205DD0001C05B
:0205DE000038E3
:0205DF000038E2
:0205E0000038E1
:0205E1000038E0
:0205E2000038DF
:0205E3000038DE
:0205E4000038DD
:0205E5000038DC
:0205E6000038DB
:0205E7000038DA
:0205E8000038D9
:0205E9000038D8
:0205EA000038D7
:0205EB000038D6
:0205EC000038D5
:0205ED000038D4
:0205EE000038D3
:0205EF000038D2
:0205F0000038D1
:0205F1000038D0
:0205F2000038CF
:0205F3000038CE
:0205F4000038CD
:0205F5000038CC
:0205F6000038CB
:0205F7000038CA
:0205F8000038C9
:0205F9000038C8
:0205FA000038C7
:0205FB000038C6
:0205FC000038C5
:0205FD000038C4
:0205FE000038C3
:0205FF000038C2
:020600000038C0
:020601000038BF
:020602000038BE
:020603000038BD
:020604000038BC
:020605000038BB
:020606000038BA
:020607000038B9
:020608000038B8
:020609000038B7
:02060A000038B6
:02060B000038B5
:02060C000038B4
:02060D000038B3
:02060E000038B2
:02060F000038B1
:020610000038B0
:020611000038AF
:020612000038AE
:020613000038AD
:020614000038AC
:020615000038AB
:020616000038AA
:020617000038A9
:020618000007D9
:020619000007D8
:02061A000007D7
:02061B000007D6
:02061C000007D5
:02061D000007D4
:02061E000007D3
:02061F000007D2
:020620000007D1
:020621000007D0
:020622000007CF
:020623000007CE
:020624000007CD
:020625000007CC
:020626000007CB
:020627000007CA
:020628000007C9
:020629000007C8
:02062A000007C7
:02062B000007C6
:02062C000007C5
:02062D000007C4
:02062E000007C3
:02062F000007C2
:020630000007C1
:020631000007C0
:020632000007BF
:020633000007BE
:020634000007BD
:020635000007BC
:020636000007BB
:020637000007BA
:020638000007B9
:020639000007B8
:02063A000007B7
:02063B000007B6
:02063C000007B5
:02063D000007B4
:02063E000007B3
:02063F000007B2
:020640000007B1
:020641000007B0
:020642000007AF
:020643000007AE
:020644000007AD
:020645000007AC
:020646000007AB
:020647000007AA
:020648000007A9
:020649000007A8
:02064A000007A7
:02064B000007A6
:02064C000007A5
:02064D000007A4
:02064E000007A3
:02064F000007A2
:020650000007A1
:020651000007A0
:020652000000A6
:020653000000A5
:020654000000A4
:020655000000A3
:020656000000A2
:020657000000A1
:020658000000A0
:0206590000009F
:02065A0000009E
:02065B0000009D
:02065C0000009C
:02065D0000009B
:02065E0000009A
:02065F00000099
:02066000000098
:02066100000097
:02066200000096
:02066300000095
:02066400000094
:02066500000093
:02066600000092
:02066700000091
:02066800000090
:0206690000008F
:02066A0000008E
:02066B0000008D
:02066C0000008C
:02066D0000008B
:02066E0000008A
:02066F00000089
:02067000000088
:02067100000087
:02067200000086
:02067300000085
:02067400000084
:02067500000083
:02067600000082
:02067700000081
:02067800000080
:0206790000007F
:02067A0000007E
:02067B0000007D
:02067C0000007C
:02067D0000007B
:02067E0000007A
:02067F00000079
:02068000000078
:02068100000077
:02068200000076
:02068300000075
:02068400000074
:02068500000073
:02068600000072
:02068700000071
:02068800000070
:0206890000006F
:02068A0000006E
:02068B00003835
:02068C0000006C
:02068D00000764
:02068E0001C0A9
:02068F0001FF69
:0206900001FF68
:0206910001C0A6
:0206920000075F
:02069300000065
:0206940000382C
:0206950001C0A2
:0206960001C0A1
:0206970001C0A0
:0206980001C09F
:0206990001C09E
:02069A0001C09D
:02069B0001C09C
:02069C0001C09B
:02069D0001C09A
:02069E0001C099
:02069F0001C098
:0206A00001C097
:0206A10001C096
:0206A20001C095
:0206A30001C094
:0206A40001C093
:0206A50001C092
:0206A60001C091
:0206A70001C090
:0206A80001C08F
:0206A90001C08E
:0206AA0001C08D
:0206AB0001C08C
:0206AC0001C08B
:0206AD0001C08A
:0206AE0001C089
:0206AF0001C088
:0206B00001C087
:0206B10001C086
:0206B20001C085
:0206B30001C084
:0206B40001C083
:0206B50001C082
:0206B60001C081
:0206B70001C080
:0206B80001C07F
:0206B90001C07E
:0206BA0001C07D
:0206BB0001C07C
:0206BC0001C07B
:0206BD0001C07A
:0206BE0001C079
:0206BF0001C078
:0206C00001C077
:0206C10001C076
:0206C20001C075
:0206C30001C074
:0206C40001C073
:0206C50001C072
:0206C60001C071
:0206C70001C070
:0206C80001C06F
:0206C90001C06E
:0206CA0001C06D
:0206CB0001C06C
:0206CC0001C06B
:0206CD0001C06A
:0206CE000038F2
:0206CF000038F1
:0206D0000038F0
:0206D1000038EF
:0206D2000038EE
:0206D3000038ED
:0206D4000038EC
:0206D5000038EB
:0206D6000038EA
:0206D7000038E9
:0206D8000038E8
:0206D9000038E7
:0206DA000038E6
:0206DB000038E5
:0206DC000038E4
:0206DD000038E3
:0206DE000038E2
:0206DF000038E1
:0206E0000038E0
:0206E1000038DF
:0206E2000038DE
:0206E3000038DD
:0206E4000038DC
:0206E5000038DB
:0206E6000038DA
:0206E7000038D9
:0206E8000038D8
:0206E9000038D7
:0206EA000038D6
:0206EB000038D5
:0206EC000038D4
:0206ED000038D3
:0206EE000038D2
:0206EF000038D1
:0206F0000038D0
:0206F1000038CF
:0206F2000038CE
:0206F3000038CD
:0206F4000038CC
:0206F5000038CB
:0206F6000038CA
:0206F7000038C9
:0206F8000038C8
:0206F9000038C7
:0206FA000038C6
:0206FB000038C5
:0206FC000038C4
:0206FD000038C3
:0206FE000038C2
:0206FF000038C1
:020700000038BF
:020701000038BE
:020702000038BD
:020703000038BC
:020704000038BB
:020705000038BA
:020706000038B9
:020707000038B8
:020708000007E8
:020709000007E7
:02070A000007E6
:02070B000007E5
:02070C000007E4
:02070D000007E3
:02070E000007E2
:02070F000007E1
:020710000007E0
:020711000007DF
:020712000007DE
:020713000007DD
:020714000007DC
:020715000007DB
:020716000007DA
:020717000007D9
:020718000007D8
:020719000007D7
:02071A000007D6
:02071B000007D5
:02071C000007D4
:02071D000007D3
:02071E000007D2
:02071F000007D1
:020720000007D0
:020721000007CF
:020722000007CE
:020723000007CD
:020724000007CC
:020725000007CB
:020726000007CA
:020727000007C9
:020728000007C8
:020729000007C7
:02072A000007C6
:02072B000007C5
:02072C000007C4
:02072D000007C3
:02072E000007C2
:02072F000007C1
:020730000007C0
:020731000007BF
:020732000007BE
:020733000007BD
:020734000007BC
:020735000007BB
:020736000007BA
:020737000007B9
:020738000007B8
:020739000007B7
:02073A000007B6
:02073B000007B5
:02073C000007B4
:02073D000007B3
:02073E000007B2
:02073F000007B1
:020740000007B0
:020741000007AF
:020742000000B5
:020743000000B4
:020744000000B3
:020745000000B2
:020746000000B1
:020747000000B0
:020748000000AF
:020749000000AE
:02074A000000AD
:02074B000000AC
:02074C000000AB
:02074D000000AA
:02074E000000A9
:02074F000000A8
:020750000000A7
:020751000000A6
:020752000000A5
:020753000000A4
:020754000000A3
:020755000000A2
:020756000000A1
:020757000000A0
:0207580000009F
:0207590000009E
:02075A0000009D
:02075B0000009C
:02075C0000009B
:02075D0000009A
:02075E00000099
:02075F00000098
:02076000000097
:02076100000096
:02076200000095
:02076300000094
:02076400000093
:02076500000092
:02076600000091
:02076700000090
:0207680000008F
:0207690000008E
:02076A0000008D
:02076B0000008C
:02076C0000008B
:02076D0000008A
:02076E00000089
:02076F00000088
:02077000000087
:02077100000086
:02077200000085
:02077300000084
:02077400000083
:02077500000082
:02077600000081
:02077700000080
:0207780000007F
:0207790000007E
:02077A0000007D
:02077B00003844
:02077C0000007B
:02077D00000773
:02077E0001C0B8
:02077F0001FF78
:0207800001FF77
:0207810001C0B5
:0207820000076E
:02078300000074
:0207840000383B
:0207850001C0B1
:0207860001C0B0
:0207870001C0AF
:0207880001C0AE
:0207890001C0AD
:02078A0001C0AC
:02078B0001C0AB
:02078C0001C0AA
:02078D0001C0A9
:02078E0001C0A8
:02078F0001C0A7
:0207900001C0A6
:0207910001C0A5
:0207920001C0A4
:0207930001C0A3
:0207940001C0A2
:0207950001C0A1
:0207960001C0A0
:0207970001C09F
:0207980001C09E
:0207990001C09D
:02079A0001C09C
:02079B0001C09B
:02079C0001C09A
:02079D0001C099
:02079E0001C098
:02079F0001C097
:0207A00001C096
:0207A10001C095
:0207A20001C094
:0207A30001C093
:0207A40001C092
:0207A50001C091
:0207A60001C090
:0207A70001C08F
:0207A80001C08E
:0207A90001C08D
:0207AA0001C08C
:0207AB0001C08B
:0207AC0001C08A
:0207AD0001C089
:0207AE0001C088
:0207AF0001C087
:0207B00001C086
:0207B10001C085
:0207B20001C084
:0207B30001C083
:0207B40001C082
:0207B50001C081
:0207B60001C080
:0207B70001C07F
:0207B80001C07E
:0207B90001C07D
:0207BA0001C07C
:0207BB0001C07B
:0207BC0001C07A
:0207BD0001C079
:0207BE00003801
:0207BF00003800
:0207C0000038FF
:0207C1000038FE
:0207C2000038FD
:0207C3000038FC
:0207C4000038FB
:0207C5000038FA
:0207C6000038F9
:0207C7000038F8
:0207C8000038F7
:0207C9000038F6
:0207CA000038F5
:0207CB000038F4
:0207CC000038F3
:0207CD000038F2
:0207CE000038F1
:0207CF000038F0
:0207D0000038EF
:0207D1000038EE
:0207D2000038ED
:0207D3000038EC
:0207D4000038EB
:0207D5000038EA
:0207D6000038E9
:0207D7000038E8
:0207D8000038E7
:0207D9000038E6
:0207DA000038E5
:0207DB000038E4
:0207DC000038E3
:0207DD000038E2
:0207DE000038E1
:0207DF000038E0
:0207E0000038DF
:0207E1000038DE
:0207E2000038DD
:0207E3000038DC
:0207E4000038DB
:0207E5000038DA
:0207E6000038D9
:0207E7000038D8
:0207E8000038D7
:0207E9000038D6
:0207EA000038D5
:0207EB000038D4
:0207EC000038D3
:0207ED000038D2
:0207EE000038D1
:0207EF000038D0
:0207F0000038CF
:0207F1000038CE
:0207F2000038CD
:0207F3000038CC
:0207F4000038CB
:0207F5000038CA
:0207F6000038C9
:0207F7000038C8
:0207F8000007F8
:0207F9000007F7
:0207FA000007F6
:0207FB000007F5
:0207FC000007F4
:0207FD000007F3
:0207FE000007F2
:0207FF000007F1
:020800000007EF
:020801000007EE
:020802000007ED
:020803000007EC
:020804000007EB
:020805000007EA
:020806000007E9
:020807000007E8
:020808000007E7
:020809000007E6
:02080A000007E5
:02080B000007E4
:02080C000007E3
:02080D000007E2
:02080E000007E1
:02080F000007E0
:020810000007DF
:020811000007DE
:020812000007DD
:020813000007DC
:020814000007DB
:020815000007DA
:020816000007D9
:020817000007D8
:020818000007D7
:020819000007D6
:02081A000007D5
:02081B000007D4
:02081C000007D3
:02081D000007D2
:02081E000007D1
:02081F000007D0
:020820000007CF
:020821000007CE
:020822000007CD
:020823000007CC
:020824000007CB
:020825000007CA
:020826000007C9
:020827000007C8
:020828000007C7
:020829000007C6
:02082A000007C5
:02082B000007C4
:02082C000007C3
:02082D000007C2
:02082E000007C1
:02082F000007C0
:020830000007BF
:020831000007BE
:020832000000C4
:020833000000C3
:020834000000C2
:020835000000C1
:020836000000C0
:020837000000BF
:020838000000BE
:020839000000BD
:02083A000000BC
:02083B000000BB
:02083C000000BA
:02083D000000B9
:02083E000000B8
:02083F000000B7
:020840000000B6
:020841000000B5
:020842000000B4
:020843000000B3
:020844000000B2
:020845000000B1
:020846000000B0
:020847000000AF
:020848000000AE
:020849000000AD
:02084A000000AC
:02084B000000AB
:02084C000000AA
:02084D000000A9
:02084E000000A8
:02084F000000A7
:020850000000A6
:020851000000A5
:020852000000A4
:020853000000A3
:020854000000A2
:020855000000A1
:020856000000A0
:0208570000009F
:0208580000009E
:0208590000009D
:02085A0000009C
:02085B0000009B
:02085C0000009A
:02085D00000099
:02085E00000098
:02085F00000097
:02086000000096
:02086100000095
:02086200000094
:02086300000093
:02086400000092
:02086500000091
:02086600000090
:0208670000008F
:0208680000008E
:0208690000008D
:02086A0000008C
:02086B00003853
:02086C0000008A
:02086D00000782
:02086E0001C0C7
:02086F0001FF87
:0208700001FF86
:0208710001C0C4
:0208720000077D
:02087300000083
:0208740000384A
:0208750001C0C0
:0208760001C0BF
:0208770001C0BE
:0208780001C0BD
:0208790001C0BC
:02087A0001C0BB
:02087B0001C0BA
:02087C0001C0B9
:02087D0001C0B8
:02087E0001C0B7
:02087F0001C0B6
:0208800001C0B5
:0208810001C0B4
:0208820001C0B3
:0208830001C0B2
:0208840001C0B1
:0208850001C0B0
:0208860001C0AF
:0208870001C0AE
:0208880001C0AD
:0208890001C0AC
:02088A0001C0AB
:02088B0001C0AA
:02088C0001C0A9
:02088D0001C0A8
:02088E0001C0A7
:02088F0001C0A6
:0208900001C0A5
:0208910001C0A4
:0208920001C0A3
:0208930001C0A2
:0208940001C0A1
:0208950001C0A0
:0208960001C09F
:0208970001C09E
:0208980001C09D
:0208990001C09C
:02089A0001C09B
:02089B0001C09A
:02089C0001C099
:02089D0001C098
:02089E0001C097
:02089F0001C096
:0208A00001C095
:0208A10001C094
:0208A20001C093
:0208A30001C092
:0208A40001C091
:0208A50001C090
:0208A60001C08F
:0208A70001C08E
:0208A80001C08D
:0208A90001C08C
:0208AA0001C08B
:0208AB0001C08A
:0208AC0001C089
:0208AD0001C088
:0208AE00003810
:0208AF0000380F
:0208B00000380E
:0208B10000380D
:0208B20000380C
:0208B30000380B
:0208B40000380A
:0208B500003809
:0208B600003808
:0208B700003807
:0208B800003806
:0208B900003805
:0208BA00003804
:0208BB00003803
:0208BC00003802
:0208BD00003801
:0208BE00003800
:0208BF000038FF
:0208C0000038FE
:0208C1000038FD
:0208C2000038FC
:0208C3000038FB
:0208C4000038FA
:0208C5000038F9
:0208C6000038F8
:0208C7000038F7
:0208C8000038F6
:0208C9000038F5
:0208CA000038F4
:0208CB000038F3
:0208CC000038F2
:0208CD000038F1
:0208CE000038F0
:0208CF000038EF
:0208D0000038EE
:0208D1000038ED
:0208D2000038EC
:0208D3000038EB
:0208D4000038EA
:0208D5000038E9
:0208D6000038E8
:0208D7000038E7
:0208D8000038E6
:0208D9000038E5
:0208DA000038E4
:0208DB000038E3
:0208DC000038E2
:0208DD000038E1
:0208DE000038E0
:0208DF000038DF
:0208E0000038DE
:0208E1000038DD
:0208E2000038DC
:0208E3000038DB
:0208E4000038DA
:0208E5000038D9
:0208E6000038D8
:0208E7000038D7
:0208E800000707
:0208E900000706
:0208EA00000705
:0208EB00000704
:0208EC00000703
:0208ED00000702
:0208EE00000701
:0208EF00000700
:0208F0000007FF
:0208F1000007FE
:0208F2000007FD
:0208F3000007FC
:0208F4000007FB
:0208F5000007FA
:0208F6000007F9
:0208F7000007F8
:0208F8000007F7
:0208F9000007F6
:0208FA000007F5
:0208FB000007F4
:0208FC000007F3
:0208FD000007F2
:0208FE000007F1
:0208FF000007F0
:020900000007EE
:020901000007ED
:020902000007EC
:020903000007EB
:020904000007EA
:020905000007E9
:020906000007E8
:020907000007E7
:020908000007E6
:020909000007E5
:02090A000007E4
:02090B000007E3
:02090C000007E2
:02090D000007E1
:02090E000007E0
:02090F000007DF
:020910000007DE
:020911000007DD
:020912000007DC
:020913000007DB
:020914000007DA
:020915000007D9
:020916000007D8
:020917000007D7
:020918000007D6
:020919000007D5
:02091A000007D4
:02091B000007D3
:02091C000007D2
:02091D000007D1
:02091E000007D0
:02091F000007CF
:020920000007CE
:020921000007CD
:020922000000D3
:020923000000D2
:020924000000D1
:020925000000D0
:020926000000CF
:020927000000CE
:020928000000CD
:020929000000CC
:02092A000000CB
:02092B000000CA
:02092C000000C9
:02092D000000C8
:02092E000000C7
:02092F000000C6
:020930000000C5
:020931000000C4
:020932000000C3
:020933000000C2
:020934000000C1
:020935000000C0
:020936000000BF
:020937000000BE
:020938000000BD
:020939000000BC
:02093A000000BB
:02093B000000BA
:02093C000000B9
:02093D000000B8
:02093E000000B7
:02093F000000B6
:020940000000B5
:020941000000B4
:020942000000B3
:020943000000B2
:020944000000B1
:020945000000B0
:020946000000AF
:020947000000AE
:020948000000AD
:020949000000AC
:02094A000000AB
:02094B000000AA
:02094C000000A9
:02094D000000A8
:02094E000000A7
:02094F000000A6
:020950000000A5
:020951000000A4
:020952000000A3
:020953000000A2
:020954000000A1
:020955000000A0
:0209560000009F
:0209570000009E
:0209580000009D
:0209590000009C
:02095A0000009B
:02095B00003862
:02095C00000099
:02095D00000791
:02095E0001C0D6
:02095F0001FF96
:0209600001FF95
:0209610001C0D3
:0209620000078C
:02096300000092
:02096400003859
:0209650001C0CF
:0209660001C0CE
:0209670001C0CD
:0209680001C0CC
:0209690001C0CB
:02096A0001C0CA
:02096B0001C0C9
:02096C0001C0C8
:02096D0001C0C7
:02096E0001C0C6
:02096F0001C0C5
:0209700001C0C4
:0209710001C0C3
:0209720001C0C2
:0209730001C0C1
:0209740001C0C0
:0209750001C0BF
:0209760001C0BE
:0209770001C0BD
:0209780001C0BC
:0209790001C0BB
:02097A0001C0BA
:02097B0001C0B9
:02097C0001C0B8
:02097D0001C0B7
:02097E0001C0B6
:02097F0001C0B5
:0209800001C0B4
:0209810001C0B3
:0209820001C0B2
:0209830001C0B1
:0209840001C0B0
:0209850001C0AF
:0209860001C0AE
:0209870001C0AD
:0209880001C0AC
:0209890001C0AB
:02098A0001C0AA
:02098B0001C0A9
:02098C0001C0A8
:02098D0001C0A7
:02098E0001C0A6
:02098F0001C0A5
:0209900001C0A4
:0209910001C0A3
:0209920001C0A2
:0209930001C0A1
:0209940001C0A0
:0209950001C09F
:0209960001C09E
:0209970001C09D
:0209980001C09C
:0209990001C09B
:02099A0001C09A
:02099B0001C099
:02099C0001C098
:02099D0001C097
:02099E0000381F
:02099F0000381E
:0209A00000381D
:0209A10000381C
:0209A20000381B
:0209A30000381A
:0209A400003819
:0209A500003818
:0209A600003817
:0209A700003816
:0209A800003815
:0209A900003814
:0209AA00003813
:0209AB00003812
:0209AC00003811
:0209AD00003810
:0209AE0000380F
:0209AF0000380E
:0209B00000380D
:0209B10000380C
:0209B20000380B
:0209B30000380A
:0209B400003809
:0209B500003808
:0209B600003807
:0209B700003806
:0209B800003805
:0209B900003804
:0209BA00003803
:0209BB00003802
:0209BC00003801
:0209BD00003800
:0209BE000038FF
:0209BF000038FE
:0209C0000038FD
:0209C1000038FC
:0209C2000038FB
:0209C3000038FA
:0209C4000038F9
:0209C5000038F8
:0209C6000038F7
:0209C7000038F6
:0209C8000038F5
:0209C9000038F4
:0209CA000038F3
:0209CB000038F2
:0209CC000038F1
:0209CD000038F0
:0209CE000038EF
:0209CF000038EE
:0209D0000038ED
:0209D1000038EC
:0209D2000038EB
:0209D3000038EA
:0209D4000038E9
:0209D5000038E8
:0209D6000038E7
:0209D7000038E6
:0209D800000716
:0209D900000715
:0209DA00000714
:0209DB00000713
:0209DC00000712
:0209DD00000711
:0209DE00000710
:0209DF0000070F
:0209E00000070E
:0209E10000070D
:0209E20000070C
:0209E30000070B
:0209E40000070A
:0209E500000709
:0209E600000708
:0209E700000707
:0209E800000706
:0209E900000705
:0209EA00000704
:0209EB00000703
:0209EC00000702
:0209ED00000701
:0209EE00000700
:0209EF000007FF
:0209F0000007FE
:0209F1000007FD
:0209F2000007FC
:0209F3000007FB
:0209F4000007FA
:0209F5000007F9
:0209F6000007F8
:0209F7000007F7
:0209F8000007F6
:0209F9000007F5
:0209FA000007F4
:0209FB000007F3
:0209FC000007F2
:0209FD000007F1
:0209FE000007F0
:0209FF000007EF
:020A00000007ED
:020A01000007EC
:020A02000007EB
:020A03000007EA
:020A04000007E9
:020A05000007E8
:020A06000007E7
:020A07000007E6
:020A08000007E5
:020A09000007E4
:020A0A000007E3
:020A0B000007E2
:020A0C000007E1
:020A0D000007E0
:020A0E000007DF
:020A0F000007DE
:020A10000007DD
:020A11000007DC
:020A12000000E2
:020A13000000E1
:020A14000000E0
:020A15000000DF
:020A16000000DE
:020A17000000DD
:020A18000000DC
:020A19000000DB
:020A1A000000DA
:020A1B000000D9
:020A1C000000D8
:020A1D000000D7
:020A1E000000D6
:020A1F000000D5
:020A20000000D4
:020A21000000D3
:020A22000000D2
:020A23000000D1
:020A24000000D0
:020A25000000CF
:020A26000000CE
:020A27000000CD
:020A28000000CC
:020A29000000CB
:020A2A000000CA
:020A2B000000C9
:020A2C000000C8
:020A2D000000C7
:020A2E000000C6
:020A2F000000C5
:020A30000000C4
:020A31000000C3
:020A32000000C2
:020A33000000C1
:020A34000000C0
:020A35000000BF
:020A36000000BE
:020A37000000BD
:020A38000000BC
:020A39000000BB
:020A3A000000BA
:020A3B000000B9
:020A3C000000B8
:020A3D000000B7
:020A3E000000B6
:020A3F000000B5
:020A40000000B4
:020A41000000B3
:020A42000000B2
:020A43000000B1
:020A44000000B0
:020A45000000AF
:020A46000000AE
:020A47000000AD
:020A48000000AC
:020A49000000AB
:020A4A000000AA
:020A4B00003871
:020A4C000000A8
:020A4D000007A0
:020A4E0001C0E5
:020A4F0001FFA5
:020A500001FFA4
:020A510001C0E2
:020A520000079B
:020A53000000A1
:020A5400003868
:020A550001C0DE
:020A560001C0DD
:020A570001C0DC
:020A580001C0DB
:020A590001C0DA
:020A5A0001C0D9
:020A5B0001C0D8
:020A5C0001C0D7
:020A5D0001C0D6
:020A5E0001C0D5
:020A5F0001C0D4
:020A600001C0D3
:020A610001C0D2
:020A620001C0D1
:020A630001C0D0
:020A640001C0CF
:020A650001C0CE
:020A660001C0CD
:020A670001C0CC
:020A680001C0CB
:020A690001C0CA
:020A6A0001C0C9
:020A6B0001C0C8
:020A6C0001C0C7
:020A6D0001C0C6
:020A6E0001C0C5
:020A6F0001C0C4
:020A700001C0C3
:020A710001C0C2
:020A720001C0C1
:020A730001C0C0
:020A740001C0BF
:020A750001C0BE
:020A760001C0BD
:020A770001C0BC
:020A780001C0BB
:020A790001C0BA
:020A7A0001C0B9
:020A7B0001C0B8
:020A7C0001C0B7
:020A7D0001C0B6
:020A7E0001C0B5
:020A7F0001C0B4
:020A800001C0B3
:020A810001C0B2
:020A820001C0B1
:020A830001C0B0
:020A840001C0AF
:020A850001C0AE
:020A860001C0AD
:020A870001C0AC
:020A880001C0AB
:020A890001C0AA
:020A8A0001C0A9
:020A8B0001C0A8
:020A8C0001C0A7
:020A8D0001C0A6
:020A8E0000382E
:020A8F0000382D
:020A900000382C
:020A910000382B
:020A920000382A
:020A9300003829
:020A9400003828
:020A9500003827
:020A9600003826
:020A9700003825
:020A9800003824
:020A9900003823
:020A9A00003822
:020A9B00003821
:020A9C00003820
:020A9D0000381F
:020A9E0000381E
:020A9F0000381D
:020AA00000381C
:020AA10000381B
:020AA20000381A
:020AA300003819
:020AA400003818
:020AA500003817
:020AA600003816
:020AA700003815
:020AA800003814
:020AA900003813
:020AAA00003812
:020AAB00003811
:020AAC00003810
:020AAD0000380F
:020AAE0000380E
:020AAF0000380D
:020AB00000380C
:020AB10000380B
:020AB20000380A
:020AB300003809
:020AB400003808
:020AB500003807
:020AB600003806
:020AB700003805
:020AB800003804
:020AB900003803
:020ABA00003802
:020ABB00003801
:020ABC00003800
:020ABD000038FF
:020ABE000038FE
:020ABF000038FD
:020AC0000038FC
:020AC1000038FB
:020AC2000038FA
:020AC3000038F9
:020AC4000038F8
:020AC5000038F7
:020AC6000038F6
:020AC7000038F5
:020AC800000725
:020AC900000724
:020ACA00000723
:020ACB00000722
:020ACC00000721
:020ACD00000720
:020ACE0000071F
:020ACF0000071E
:020AD00000071D
:020AD10000071C
:020AD20000071B
:020AD30000071A
:020AD400000719
:020AD500000718
:020AD600000717
:020AD700000716
:020AD800000715
:020AD900000714
:020ADA00000713
:020ADB00000712
:020ADC00000711
:020ADD00000710
:020ADE0000070F
:020ADF0000070E
:020AE00000070D
:020AE10000070C
:020AE20000070B
:020AE30000070A
:020AE400000709
:020AE500000708
:020AE600000707
:020AE700000706
:020AE800000705
:020AE900000704
:020AEA00000703
:020AEB00000702
:020AEC00000701
:020AED00000700
:020AEE000007FF
:020AEF000007FE
:020AF0000007FD
:020AF1000007FC
:020AF2000007FB
:020AF3000007FA
:020AF4000007F9
:020AF5000007F8
:020AF6000007F7
:020AF7000007F6
:020AF8000007F5
:020AF9000007F4
:020AFA000007F3
:020AFB000007F2
:020AFC000007F1
:020AFD000007F0
:020AFE000007EF
:020AFF000007EE
:020B00000007EC
:020B01000007EB
:020B02000000F1
:020B03000000F0
:020B04000000EF
:020B05000000EE
:020B06000000ED
:020B07000000EC
:020B08000000EB
:020B09000000EA
:020B0A000000E9
:020B0B000000E8
:020B0C000000E7
:020B0D000000E6
:020B0E000000E5
:020B0F000000E4
:020B10000000E3
:020B11000000E2
:020B12000000E1
:020B13000000E0
:020B14000000DF
:020B15000000DE
:020B16000000DD
:020B17000000DC
:020B18000000DB
:020B19000000DA
:020B1A000000D9
:020B1B000000D8
:020B1C000000D7
:020B1D000000D6
:020B1E000000D5
:020B1F000000D4
:020B20000000D3
:020B21000000D2
:020B22000000D1
:020B23000000D0
:020B24000000CF
:020B25000000CE
:020B26000000CD
:020B27000000CC
:020B28000000CB
:020B29000000CA
:020B2A000000C9
:020B2B000000C8
:020B2C000000C7
:020B2D000000C6
:020B2E000000C5
:020B2F000000C4
:020B30000000C3
:020B31000000C2
:020B32000000C1
:020B33000000C0
:020B34000000BF
:020B35000000BE
:020B36000000BD
:020B37000000BC
:020B38000000BB
:020B39000000BA
:020B3A000000B9
:020B3B00003880
:020B3C000000B7
:020B3D000007AF
:020B3E0001C0F4
:020B3F0001FFB4
:020B400001FFB3
:020B410001C0F1
:020B42000007AA
:020B43000000B0
:020B4400003877
:020B450001C0ED
:020B460001C0EC
:020B470001C0EB
:020B480001C0EA
:020B490001C0E9
:020B4A0001C0E8
:020B4B0001C0E7
:020B4C0001C0E6
:020B4D0001C0E5
:020B4E0001C0E4
:020B4F0001C0E3
:020B500001C0E2
:020B510001C0E1
:020B520001C0E0
:020B530001C0DF
:020B540001C0DE
:020B550001C0DD
:020B560001C0DC
:020B570001C0DB
:020B580001C0DA
:020B590001C0D9
:020B5A0001C0D8
:020B5B0001C0D7
:020B5C0001C0D6
:020B5D0001C0D5
:020B5E0001C0D4
:020B5F0001C0D3
:020B600001C0D2
:020B610001C0D1
:020B620001C0D0
:020B630001C0CF
:020B640001C0CE
:020B650001C0CD
:020B660001C0CC
:020B670001C0CB
:020B680001C0CA
:020B690001C0C9
:020B6A0001C0C8
:020B6B0001C0C7
:020B6C0001C0C6
:020B6D0001C0C5
:020B6E0001C0C4
:020B6F0001C0C3
:020B700001C0C2
:020B710001C0C1
:020B720001C0C0
:020B730001C0BF
:020B740001C0BE
:020B750001C0BD
:020B760001C0BC
:020B770001C0BB
:020B780001C0BA
:020B790001C0B9
:020B7A0001C0B8
:020B7B0001C0B7
:020B7C0001C0B6
:020B7D0001C0B5
:020B7E0000383D
:020B7F0000383C
:020B800000383B
:020B810000383A
:020B8200003839
:020B8300003838
:020B8400003837
:020B8500003836
:020B8600003835
:020B8700003834
:020B8800003833
:020B8900003832
:020B8A00003831
:020B8B00003830
:020B8C0000382F
:020B8D0000382E
:020B8E0000382D
:020B8F0000382C
:020B900000382B
:020B910000382A
:020B9200003829
:020B9300003828
:020B9400003827
:020B9500003826
:020B9600003825
:020B9700003824
:020B9800003823
:020B9900003822
:020B9A00003821
:020B9B00003820
:020B9C0000381F
:020B9D0000381E
:020B9E0000381D
:020B9F0000381C
:020BA00000381B
:020BA10000381A
:020BA200003819
:020BA300003818
:020BA400003817
:020BA500003816
:020BA600003815
:020BA700003814
:020BA800003813
:020BA900003812
:020BAA00003811
:020BAB00003810
:020BAC0000380F
:020BAD0000380E
:020BAE0000380D
:020BAF0000380C
:020BB00000380B
:020BB10000380A
:020BB200003809
:020BB300003808
:020BB400003807
:020BB500003806
:020BB600003805
:020BB700003804
:020BB800000734
:020BB900000733
:020BBA00000732
:020BBB00000731
:020BBC00000730
:020BBD0000072F
:020BBE0000072E
:020BBF0000072D
:020BC00000072C
:020BC10000072B
:020BC20000072A
:020BC300000729
:020BC400000728
:020BC500000727
:020BC600000726
:020BC700000725
:020BC800000724
:020BC900000723
:020BCA00000722
:020BCB00000721
:020BCC00000720
:020BCD0000071F
:020BCE0000071E
:020BCF0000071D
:020BD00000071C
:020BD10000071B
:020BD20000071A
:020BD300000719
:020BD400000718
:020BD500000717
:020BD600000716
:020BD700000715
:020BD800000714
:020BD900000713
:020BDA00000712
:020BDB00000711
:020BDC00000710
:020BDD0000070F
:020BDE0000070E
:020BDF0000070D
:020BE00000070C
:020BE10000070B
:020BE20000070A
:020BE300000709
:020BE400000708
:020BE500000707
:020BE600000706
:020BE700000705
:020BE800000704
:020BE900000703
:020BEA00000702
:020BEB00000701
:020BEC00000700
:020BED000007FF
:020BEE000007FE
:020BEF000007FD
:020BF0000007FC
:020BF1000007FB
:020BF200000001
:020BF300000000
:020BF4000000FF
:020BF5000000FE
:020BF6000000FD
:020BF7000000FC
:020BF8000000FB
:020BF9000000FA
:020BFA000000F9
:020BFB000000F8
:020BFC000000F7
:020BFD000000F6
:020BFE000000F5
:020BFF000000F4
:020C00000000F2
:020C01000000F1
:020C02000000F0
:020C03000000EF
:020C04000000EE
:020C05000000ED
:020C06000000EC
:020C07000000EB
:020C08000000EA
:020C09000000E9
:020C0A000000E8
:020C0B000000E7
:020C0C000000E6
:020C0D000000E5
:020C0E000000E4
:020C0F000000E3
:020C10000000E2
:020C11000000E1
:020C12000000E0
:020C13000000DF
:020C14000000DE
:020C15000000DD
:020C16000000DC
:020C17000000DB
:020C18000000DA
:020C19000000D9
:020C1A000000D8
:020C1B000000D7
:020C1C000000D6
:020C1D000000D5
:020C1E000000D4
:020C1F000000D3
:020C20000000D2
:020C21000000D1
:020C22000000D0
:020C23000000CF
:020C24000000CE
:020C25000000CD
:020C26000000CC
:020C27000000CB
:020C28000000CA
:020C29000000C9
:020C2A000000C8
:020C2B0000388F
:020C2C000000C6
:020C2D000007BE
:020C2E0001C003
:020C2F0001FFC3
:020C300001FFC2
:020C310001C000
:020C32000007B9
:020C33000000BF
:020C3400003886
:020C350001C0FC
:020C360001C0FB
:020C370001C0FA
:020C380001C0F9
:020C390001C0F8
:020C3A0001C0F7
:020C3B0001C0F6
:020C3C0001C0F5
:020C3D0001C0F4
:020C3E0001C0F3
:020C3F0001C0F2
:020C400001C0F1
:020C410001C0F0
:020C420001C0EF
:020C430001C0EE
:020C440001C0ED
:020C450001C0EC
:020C460001C0EB
:020C470001C0EA
:020C480001C0E9
:020C490001C0E8
:020C4A0001C0E7
:020C4B0001C0E6
:020C4C0001C0E5
:020C4D0001C0E4
:020C4E0001C0E3
:020C4F0001C0E2
:020C500001C0E1
:020C510001C0E0
:020C520001C0DF
:020C530001C0DE
:020C540001C0DD
:020C550001C0DC
:020C560001C0DB
:020C570001C0DA
:020C580001C0D9
:020C590001C0D8
:020C5A0001C0D7
:020C5B0001C0D6
:020C5C0001C0D5
:020C5D0001C0D4
:020C5E0001C0D3
:020C5F0001C0D2
:020C600001C0D1
:020C610001C0D0
:020C620001C0CF
:020C630001C0CE
:020C640001C0CD
:020C650001C0CC
:020C660001C0CB
:020C670001C0CA
:020C680001C0C9
:020C690001C0C8
:020C6A0001C0C7
:020C6B0001C0C6
:020C6C0001C0C5
:020C6D0001C0C4
:020C6E0000384C
:020C6F0000384B
:020C700000384A
:020C7100003849
:020C7200003848
:020C7300003847
:020C7400003846
:020C7500003845
:020C7600003844
:020C7700003843
:020C7800003842
:020C7900003841
:020C7A00003840
:020C7B0000383F
:020C7C0000383E
:020C7D0000383D
:020C7E0000383C
:020C7F0000383B
:020C800000383A
:020C8100003839
:020C8200003838
:020C8300003837
:020C8400003836
:020C8500003835
:020C8600003834
:020C8700003833
:020C8800003832
:020C8900003831
:020C8A00003830
:020C8B0000382F
:020C8C0000382E
:020C8D0000382D
:020C8E0000382C
:020C8F0000382B
:020C900000382A
:020C9100003829
:020C9200003828
:020C9300003827
:020C9400003826
:020C9500003825
:020C9600003824
:020C9700003823
:020C9800003822
:020C9900003821
:020C9A00003820
:020C9B0000381F
:020C9C0000381E
:020C9D0000381D
:020C9E0000381C
:020C9F0000381B
:020CA00000381A
:020CA100003819
:020CA200003818
:020CA300003817
:020CA400003816
:020CA500003815
:020CA600003814
:020CA700003813
:020CA800000743
:020CA900000742
:020CAA00000741
:020CAB00000740
:020CAC0000073F
:020CAD0000073E
:020CAE0000073D
:020CAF0000073C
:020CB00000073B
:020CB10000073A
:020CB200000739
:020CB300000738
:020CB400000737
:020CB500000736
:020CB600000735
:020CB700000734
:020CB800000733
:020CB900000732
:020CBA00000731
:020CBB00000730
:020CBC0000072F
:020CBD0000072E
:020CBE0000072D
:020CBF0000072C
:020CC00000072B
:020CC10000072A
:020CC200000729
:020CC300000728
:020CC400000727
:020CC500000726
:020CC600000725
:020CC700000724
:020CC800000723
:020CC900000722
:020CCA00000721
:020CCB00000720
:020CCC0000071F
:020CCD0000071E
:020CCE0000071D
:020CCF0000071C
:020CD00000071B
:020CD10000071A
:020CD200000719
:020CD300000718
:020CD400000717
:020CD500000716
:020CD600000715
:020CD700000714
:020CD800000713
:020CD900000712
:020CDA00000711
:020CDB00000710
:020CDC0000070F
:020CDD0000070E
:020CDE0000070D
:020CDF0000070C
:020CE00000070B
:020CE10000070A
:020CE200000010
:020CE30000000F
:020CE40000000E
:020CE50000000D
:020CE60000000C
:020CE70000000B
:020CE80000000A
:020CE900000009
:020CEA00000008
:020CEB00000007
:020CEC00000006
:020CED00000005
:020CEE00000004
:020CEF00000003
:020CF000000002
:020CF100000001
:020CF200000000
:020CF3000000FF
:020CF4000000FE
:020CF5000000FD
:020CF6000000FC
:020CF7000000FB
:020CF8000000FA
:020CF9000000F9
:020CFA000000F8
:020CFB000000F7
:020CFC000000F6
:020CFD000000F5
:020CFE000000F4
:020CFF000000F3
:020D00000000F1
:020D01000000F0
:020D02000000EF
:020D03000000EE
:020D04000000ED
:020D05000000EC
:020D06000000EB
:020D07000000EA
:020D08000000E9
:020D09000000E8
:020D0A000000E7
:020D0B000000E6
:020D0C000000E5
:020D0D000000E4
:020D0E000000E3
:020D0F000000E2
:020D10000000E1
:020D11000000E0
:020D12000000DF
:020D13000000DE
:020D14000000DD
:020D15000000DC
:020D16000000DB
:020D17000000DA
:020D18000000D9
:020D19000000D8
:020D1A000000D7
:020D1B0000389E
:020D1C000000D5
:020D1D000007CD
:020D1E0001C012
:020D1F0001FFD2
:020D200001FFD1
:020D210001C00F
:020D22000007C8
:020D23000000CE
:020D2400003895
:020D250001C00B
:020D260001C00A
:020D270001C009
:020D280001C008
:020D290001C007
:020D2A0001C006
:020D2B0001C005
:020D2C0001C004
:020D2D0001C003
:020D2E0001C002
:020D2F0001C001
:020D300001C000
:020D310001C0FF
:020D320001C0FE
:020D330001C0FD
:020D340001C0FC
:020D350001C0FB
:020D360001C0FA
:020D370001C0F9
:020D380001C0F8
:020D390001C0F7
:020D3A0001C0F6
:020D3B0001C0F5
:020D3C0001C0F4
:020D3D0001C0F3
:020D3E0001C0F2
:020D3F0001C0F1
:020D400001C0F0
:020D410001C0EF
:020D420001C0EE
:020D430001C0ED
:020D440001C0EC
:020D450001C0EB
:020D460001C0EA
:020D470001C0E9
:020D480001C0E8
:020D490001C0E7
:020D4A0001C0E6
:020D4B0001C0E5
:020D4C0001C0E4
:020D4D0001C0E3
:020D4E0001C0E2
:020D4F0001C0E1
:020D500001C0E0
:020D510001C0DF
:020D520001C0DE
:020D530001C0DD
:020D540001C0DC
:020D550001C0DB
:020D560001C0DA
:020D570001C0D9
:020D580001C0D8
:020D590001C0D7
:020D5A0001C0D6
:020D5B0001C0D5
:020D5C0001C0D4
:020D5D0001C0D3
:020D5E0000385B
:020D5F0000385A
:020D6000003859
:020D6100003858
:020D6200003857
:020D6300003856
:020D6400003855
:020D6500003854
:020D6600003853
:020D6700003852
:020D6800003851
:020D6900003850
:020D6A0000384F
:020D6B0000384E
:020D6C0000384D
:020D6D0000384C
:020D6E0000384B
:020D6F0000384A
:020D7000003849
:020D7100003848
:020D7200003847
:020D7300003846
:020D7400003845
:020D7500003844
:020D7600003843
:020D7700003842
:020D7800003841
:020D7900003840
:020D7A0000383F
:020D7B0000383E
:020D7C0000383D
:020D7D0000383C
:020D7E0000383B
:020D7F0000383A
:020D8000003839
:020D8100003838
:020D8200003837
:020D8300003836
:020D8400003835
:020D8500003834
:020D8600003833
:020D8700003832
:020D8800003831
:020D8900003830
:020D8A0000382F
:020D8B0000382E
:020D8C0000382D
:020D8D0000382C
:020D8E0000382B
:020D8F0000382A
:020D9000003829
:020D9100003828
:020D9200003827
:020D9300003826
:020D9400003825
:020D9500003824
:020D9600003823
:020D9700003822
:020D9800000752
:020D9900000751
:020D9A00000750
:020D9B0000074F
:020D9C0000074E
:020D9D0000074D
:020D9E0000074C
:020D9F0000074B
:020DA00000074A
:020DA100000749
:020DA200000748
:020DA300000747
:020DA400000746
:020DA500000745
:020DA600000744
:020DA700000743
:020DA800000742
:020DA900000741
:020DAA00000740
:020DAB0000073F
:020DAC0000073E
:020DAD0000073D
:020DAE0000073C
:020DAF0000073B
:020DB00000073A
:020DB100000739
:020DB200000738
:020DB300000737
:020DB400000736
:020DB500000735
:020DB600000734
:020DB700000733
:020DB800000732
:020DB900000731
:020DBA00000730
:020DBB0000072F
:020DBC0000072E
:020DBD0000072D
:020DBE0000072C
:020DBF0000072B
:020DC00000072A
:020DC100000729
:020DC200000728
:020DC300000727
:020DC400000726
:020DC500000725
:020DC600000724
:020DC700000723
:020DC800000722
:020DC900000721
:020DCA00000720
:020DCB0000071F
:020DCC0000071E
:020DCD0000071D
:020DCE0000071C
:020DCF0000071B
:020DD00000071A
:020DD100000719
:020DD20000001F
:020DD30000001E
:020DD40000001D
:020DD50000001C
:020DD60000001B
:020DD70000001A
:020DD800000019
:020DD900000018
:020DDA00000017
:020DDB00000016
:020DDC00000015
:020DDD00000014
:020DDE00000013
:020DDF00000012
:020DE000000011
:020DE100000010
:020DE20000000F
:020DE30000000E
:020DE40000000D
:020DE50000000C
:020DE60000000B
:020DE70000000A
:020DE800000009
:020DE900000008
:020DEA00000007
:020DEB00000006
:020DEC00000005
:020DED00000004
:020DEE00000003
:020DEF00000002
:020DF000000001
:020DF100000000
:020DF2000000FF
:020DF3000000FE
:020DF4000000FD
:020DF5000000FC
:020DF6000000FB
:020DF7000000FA
:020DF8000000F9
:020DF9000000F8
:020DFA000000F7
:020DFB000000F6
:020DFC000000F5
:020DFD000000F4
:020DFE000000F3
:020DFF000000F2
:020E00000000F0
:020E01000000EF
:020E02000000EE
:020E03000000ED
:020E04000000EC
:020E05000000EB
:020E06000000EA
:020E07000000E9
:020E08000000E8
:020E09000000E7
:020E0A000000E6
:020E0B000038AD
:020E0C000000E4
:020E0D000007DC
:020E0E0001C021
:020E0F0001FFE1
:020E100001FFE0
:020E110001C01E
:020E12000007D7
:020E13000000DD
:020E14000038A4
:020E150001C01A
:020E160001C019
:020E170001C018
:020E180001C017
:020E190001C016
:020E1A0001C015
:020E1B0001C014
:020E1C0001C013
:020E1D0001C012
:020E1E0001C011
:020E1F0001C010
:020E200001C00F
:020E210001C00E
:020E220001C00D
:020E230001C00C
:020E240001C00B
:020E250001C00A
:020E260001C009
:020E270001C008
:020E280001C007
:020E290001C006
:020E2A0001C005
:020E2B0001C004
:020E2C0001C003
:020E2D0001C002
:020E2E0001C001
:020E2F0001C000
:020E300001C0FF
:020E310001C0FE
:020E320001C0FD
:020E330001C0FC
:020E340001C0FB
:020E350001C0FA
:020E360001C0F9
:020E370001C0F8
:020E380001C0F7
:020E390001C0F6
:020E3A0001C0F5
:020E3B0001C0F4
:020E3C0001C0F3
:020E3D0001C0F2
:020E3E0001C0F1
:020E3F0001C0F0
:020E400001C0EF
:020E410001C0EE
:020E420001C0ED
:020E430001C0EC
:020E440001C0EB
:020E450001C0EA
:020E460001C0E9
:020E470001C0E8
:020E480001C0E7
:020E490001C0E6
:020E4A0001C0E5
:020E4B0001C0E4
:020E4C0001C0E3
:020E4D0001C0E2
:020E4E0000386A
:020E4F00003869
:020E5000003868
:020E5100003867
:020E5200003866
:020E5300003865
:020E5400003864
:020E5500003863
:020E5600003862
:020E5700003861
:020E5800003860
:020E590000385F
:020E5A0000385E
:020E5B0000385D
:020E5C0000385C
:020E5D0000385B
:020E5E0000385A
:020E5F00003859
:020E6000003858
:020E6100003857
:020E6200003856
:020E6300003855
:020E6400003854
:020E6500003853
:020E6600003852
:020E6700003851
:020E6800003850
:020E690000384F
:020E6A0000384E
:020E6B0000384D
:020E6C0000384C
:020E6D0000384B
:020E6E0000384A
:020E6F00003849
:020E7000003848
:020E7100003847
:020E7200003846
:020E7300003845
:020E7400003844
:020E7500003843
:020E7600003842
:020E7700003841
:020E7800003840
:020E790000383F
:020E7A0000383E
:020E7B0000383D
:020E7C0000383C
:020E7D0000383B
:020E7E0000383A
:020E7F00003839
:020E8000003838
:020E8100003837
:020E8200003836
:020E8300003835
:020E8400003834
:020E8500003833
:020E8600003832
:020E8700003831
:020E8800000761
:020E8900000760
:020E8A0000075F
:020E8B0000075E
:020E8C0000075D
:020E8D0000075C
:020E8E0000075B
:020E8F0000075A
:020E9000000759
:020E9100000758
:020E9200000757
:020E9300000756
:020E9400000755
:020E9500000754
:020E9600000753
:020E9700000752
:020E9800000751
:020E9900000750
:020E9A0000074F
:020E9B0000074E
:020E9C0000074D
:020E9D0000074C
:020E9E0000074B
:020E9F0000074A
:020EA000000749
:020EA100000748
:020EA200000747
:020EA300000746
:020EA400000745
:020EA500000744
:020EA600000743
:020EA700000742
:020EA800000741
:020EA900000740
:020EAA0000073F
:020EAB0000073E
:020EAC0000073D
:020EAD0000073C
:020EAE0000073B
:020EAF0000073A
:020EB000000739
:020EB100000738
:020EB200000737
:020EB300000736
:020EB400000735
:020EB500000734
:020EB600000733
:020EB700000732
:020EB800000731
:020EB900000730
:020EBA0000072F
:020EBB0000072E
:020EBC0000072D
:020EBD0000072C
:020EBE0000072B
:020EBF0000072A
:020EC000000729
:020EC100000728
:020EC20000002E
:020EC30000002D
:020EC40000002C
:020EC50000002B
:020EC60000002A
:020EC700000029
:020EC800000028
:020EC900000027
:020ECA00000026
:020ECB00000025
:020ECC00000024
:020ECD00000023
:020ECE00000022
:020ECF00000021
:020ED000000020
:020ED10000001F
:020ED20000001E
:020ED30000001D
:020ED40000001C
:020ED50000001B
:020ED60000001A
:020ED700000019
:020ED800000018
:020ED900000017
:020EDA00000016
:020EDB00000015
:020EDC00000014
:020EDD00000013
:020EDE00000012
:020EDF00000011
:020EE000000010
:020EE10000000F
:020EE20000000E
:020EE30000000D
:020EE40000000C
:020EE50000000B
:020EE60000000A
:020EE700000009
:020EE800000008
:020EE900000007
:020EEA00000006
:020EEB00000005
:020EEC00000004
:020EED00000003
:020EEE00000002
:020EEF00000001
:020EF000000000
:020EF1000000FF
:020EF2000000FE
:020EF3000000FD
:020EF4000000FC
:020EF5000000FB
:020EF6000000FA
:020EF7000000F9
:020EF8000000F8
:020EF9000000F7
:020EFA000000F6
:020EFB000038BD
:020EFC000000F4
:020EFD000007EC
:020EFE0001C031
:020EFF0001FFF1
:020F000001FFEF
:020F010001C02D
:020F02000007E6
:020F03000000EC
:020F04000038B3
:020F050001C029
:020F060001C028
:020F070001C027
:020F080001C026
:020F090001C025
:020F0A0001C024
:020F0B0001C023
:020F0C0001C022
:020F0D0001C021
:020F0E0001C020
:020F0F0001C01F
:020F100001C01E
:020F110001C01D
:020F120001C01C
:020F130001C01B
:020F140001C01A
:020F150001C019
:020F160001C018
:020F170001C017
:020F180001C016
:020F190001C015
:020F1A0001C014
:020F1B0001C013
:020F1C0001C012
:020F1D0001C011
:020F1E0001C010
:020F1F0001C00F
:020F200001C00E
:020F210001C00D
:020F220001C00C
:020F230001C00B
:020F240001C00A
:020F250001C009
:020F260001C008
:020F270001C007
:020F280001C006
:020F290001C005
:020F2A0001C004
:020F2B0001C003
:020F2C0001C002
:020F2D0001C001
:020F2E0001C000
:020F2F0001C0FF
:020F300001C0FE
:020F310001C0FD
:020F320001C0FC
:020F330001C0FB
:020F340001C0FA
:020F350001C0F9
:020F360001C0F8
:020F370001C0F7
:020F380001C0F6
:020F390001C0F5
:020F3A0001C0F4
:020F3B0001C0F3
:020F3C0001C0F2
:020F3D0001C0F1
:020F3E00003879
:020F3F00003878
:020F4000003877
:020F4100003876
:020F4200003875
:020F4300003874
:020F4400003873
:020F4500003872
:020F4600003871
:020F4700003870
:020F480000386F
:020F490000386E
:020F4A0000386D
:020F4B0000386C
:020F4C0000386B
:020F4D0000386A
:020F4E00003869
:020F4F00003868
:020F5000003867
:020F5100003866
:020F5200003865
:020F5300003864
:020F5400003863
:020F5500003862
:020F5600003861
:020F5700003860
:020F580000385F
:020F590000385E
:020F5A0000385D
:020F5B0000385C
:020F5C0000385B
:020F5D0000385A
:020F5E00003859
:020F5F00003858
:020F6000003857
:020F6100003856
:020F6200003855
:020F6300003854
:020F6400003853
:020F6500003852
:020F6600003851
:020F6700003850
:020F680000384F
:020F690000384E
:020F6A0000384D
:020F6B0000384C
:020F6C0000384B
:020F6D0000384A
:020F6E00003849
:020F6F00003848
:020F7000003847
:020F7100003846
:020F7200003845
:020F7300003844
:020F7400003843
:020F7500003842
:020F7600003841
:020F7700003840
:020F7800000770
:020F790000076F
:020F7A0000076E
:020F7B0000076D
:020F7C0000076C
:020F7D0000076B
:020F7E0000076A
:020F7F00000769
:020F8000000768
:020F8100000767
:020F8200000766
:020F8300000765
:020F8400000764
:020F8500000763
:020F8600000762
:020F8700000761
:020F8800000760
:020F890000075F
:020F8A0000075E
:020F8B0000075D
:020F8C0000075C
:020F8D0000075B
:020F8E0000075A
:020F8F00000759
:020F9000000758
:020F9100000757
:020F9200000756
:020F9300000755
:020F9400000754
:020F9500000753
:020F9600000752
:020F9700000751
:020F9800000750
:020F990000074F
:020F9A0000074E
:020F9B0000074D
:020F9C0000074C
:020F9D0000074B
:020F9E0000074A
:020F9F00000749
